:100000000EC015C014C013C012C011C010C00FC064
:100010000EC00DC00CC00BC00AC009C008C011241E
:100020001FBECFE5D2E0DEBFCDBF02D013C1E8CF07
:1000300003D100C0FFD000C0FFD000C0FBD000C083
:10004000FBD000C0F7D000C0F7D000C0F3D000C094
:10005000F3D000C0EFD000C0EFD000C0EBD000C0A4
:10006000EBD000C0E7D000C0E7D000C0E3D000C0B4
:10007000E3D000C0DFD000C0DDD000C0DDD000C0C4
:10008000D9D000C0D9D000C0D5D000C0D5D000C0D4
:10009000D3D000C0CFD000C0CFD000C0CBD000C0E4
:1000A000C9D000C0C9D000C0C5D000C0C5D000C0F4
:1000B000C3D000C0BFD000C0BDD000C0BDD000C004
:1000C000BBD000C0B7D000C0B5D000C0B5D000C014
:1000D000B1D000C0B1D000C0AFD000C0ABD000C024
:1000E000ABD000C0A7D000C0A5D000C0A5D000C034
:1000F000A1D000C0A1D000C09FD000C09BD000C044
:1001000099D000C099D000C095D000C095D000C053
:1001100093D000C08FD000C08DD000C08DD000C063
:100120008BD000C087D000C085D000C085D000C073
:1001300083D000C07FD000C07DD000C07DD000C083
:1001400079D000C079D000C077D000C073D000C093
:1001500073D000C06FD000C06DD000C06DD000C0A3
:1001600069D000C069D000C065D000C065D000C0B3
:1001700063D000C05FD000C05FD000C05BD000C0C3
:100180005BD000C057D000C057D000C053D000C0D3
:1001900053D000C04FD000C04DD000C04DD000C0E3
:1001A00049D000C049D000C045D000C045D000C0F3
:1001B00043D000C03FD000C03FD000C03BD000C003
:1001C00039D000C039D000C035D000C035D000C013
:1001D00033D000C02FD000C02DD000C02DD000C023
:1001E0002BD000C027D000C025D000C025D000C033
:1001F00023D000C01FD000C01DD000C01DD000C043
:1002000019D000C019D000C017D000C013D000C052
:1002100011D000C011D000C00FD000C00BD000C062
:100220000BD000C007D000C005D000C005D000CF63
:100230000FEF00B908E102C000E000C007BB00C03A
:1002400000C000C000C000C000C000C000C000C0AE
:0802500000000895F894FFCFAF
:00000001FF
